:03000000020006F5
:03005F0002000399
:0300030002006296
:20006200750801750900750A02750B00850A158508828509831200A885820C85830D751056
:20008200C87511007512C97513007514CA751510751600751740850A82850B831200BA857F
:0600A200820E85830F228F
:1200A800AE82AF83AC157D00EEC39CF582EF9DF58322BC
:2000BA00AE82AF83E5154516601FAB15AC16AD178B828C838DF01200E7FBA31200E7FCEB9A
:0D00DA002EF582EC3FF5838003900000229C
:06003500E478FFF6D8FD9F
:200013007900E94400601B7A00900107780175A000E493F2A308B8000205A0D9F4DAF2758B
:02003300A0FF2C
:20003B007800E84400600A790175A000E4F309D8FC7800E84400600C7900900001E4F0A3C3
:04005B00D8FCD9FAFA
:0D000600758117120103E5826003020003FB
:1C00E70020F71430F6148883A88220F507E6A88375830022E280F7E49322E02228
:0401030075820022DF
:00000001FF
